:100000000C94FE000C9408010C9408010C94080157
:100010000C9408010C9408010C9408010C9408013C
:100020000C9408010C9408010C9408010C9408012C
:100030000C9408010C9408010C9408010C9408011C
:100040000C9408010C9408010C9408010C9408010C
:100050000C9408010C9408010C9408010C940801FC
:100060000C9408010C9408010C9408010C940801EC
:100070000C9408010C9408010C9408010C940801DC
:100080000C9408010C9408010C9408010C940801CC
:100090000C9408010C9408010C9408010C940801BC
:1000A0000C9408010C9408010C9408010C940801AC
:1000B0000C9408010C9408010C9408010C9408019C
:1000C0000C9408010C9408010C9408010C9408018C
:1000D0000C9408010C9408010C9408010C9408017C
:1000E0000C9408010C9408010C9408010C9408016C
:1000F0000C9408010C9408010C9408010C9408015C
:100100000C9408010C9408010C9408010C9408014B
:100110000C9408010C9408010C9408010C9408013B
:100120000C9408010C9408010C9408010C9408012B
:100130000C9408010C9408010C9408010C9408011B
:100140000C9408010C9408010C9408010C9408010B
:100150000C9408010C9408010C9408010C940801FB
:100160000C9408010C9408010C9408010C940801EB
:100170000C9408010C9408010C9408010C940801DB
:100180000C9408010C9408010C9408010C940801CB
:100190000C9408010C9408010C9408010C940801BB
:1001A0000C9408010C9408010C9408010C940801AB
:1001B0000C9408010C9408010C9408010C9408019B
:1001C0000C9408010C9408010C9408010C9408018B
:1001D0000C9408010C9408010C9408010C9408017B
:1001E0000C9408010C9408010C9408010C9408016B
:1001F0000C9408010C9408010C94080111241FBEF2
:10020000CFEFCDBFDFE2DEBF0E9468040C94F106A1
:100210000C940000CF93DF93CDB7DEB725E030E03C
:100220002C0F3D1FFC012283338310821182DF914A
:10023000CF910895CF93DF93CDB7DEB725E030E0BF
:100240002C0F3D1FFC012283338321E030E020830B
:100250003183DF91CF910895CF93DF93CDB7DEB790
:1002600025E030E02C0F3D1FFC012283338322E088
:1002700030E020833183DF91CF910895FC018081AC
:1002800091818130910529F08230910511F0892BFF
:1002900011F4128213820895FC01648175818681B4
:1002A00097810895FC01808591850895FC018081E6
:1002B0009181009719F0019709F00895A281B38107
:1002C00011968C911197807F11968C930280F38107
:1002D000E02D8181862B818308950F93FC0180811D
:1002E0009181009711F00197C1F4A281B381119619
:1002F0008C9111978F7011968C930280F381E02D71
:10030000918181E0611107C0411105C0211103C035
:10031000011101C080E0892B81830F910895FC01B8
:1003200080819181009719F0019709F0089502806A
:10033000F381E02D60A771A70895FC018081918170
:10034000009719F0019709F008950280F381E02DDC
:1003500062A773A70895DC012D913C911197232B7F
:1003600031F41296ED91FC91139764A775A7089547
:10037000DC012D913C911197232B31F41296ED91D4
:10038000FC91139766A777A70895CF92DF92EF921B
:10039000FF920F931F93CF93DF93EC017A016901D2
:1003A0000E948F01B701CE010E949D01B601CE01CE
:1003B0000E94AB01B801CE01DF91CF911F910F9147
:1003C000FF90EF90DF90CF900C94B8010F931F93A4
:1003D000CF93DF93FC01EB0180819181009711F0B5
:1003E000019799F4028113816085718580E090E026
:1003F0000E94D805288139814A815B810E948E063E
:100400000E94AC05F80160A771A7DF91CF911F9101
:100410000F9108950F931F93CF93DF93FC01EB018E
:1004200080819181009711F0019799F402811381E5
:100430006085718580E090E00E94D805288139812F
:100440004A815B810E948E060E94AC05F80162A77A
:1004500073A7DF91CF911F910F9108950F931F9371
:10046000CF93DF93FC018B0180819181892B99F4DB
:10047000C281D3816085718580E090E00E94D805BB
:10048000F80120813181428153810E948E060E94B1
:10049000AC056CA77DA7DF91CF911F910F910895B7
:1004A0000F931F93CF93DF93FC018B018081918188
:1004B000892B99F4C281D3816085718580E090E0B9
:1004C0000E94D805F80120813181428153810E9428
:1004D0008E060E94AC056EA77FA7DF91CF911F917A
:1004E0000F910895CF92DF92EF92FF920F931F9397
:1004F000CF93DF93EC017A0169010E94E601B70115
:10050000CE010E940A02B601CE010E942E02B8015D
:10051000CE01DF91CF911F910F91FF90EF90DF906F
:10052000CF900C945002CF93DF93EC01FA018881B5
:100530009981009711F0019779F48A819B81DB0101
:100540002C91DC012C938A819B8120813181DC01FB
:1005500096962D933C939797808191818887998770
:1005600040815181FB018081282F30E0853028F0C7
:1005700022503109220F331F02C02150310981E07E
:1005800090E002C0880F991F2A95E2F7489FB001BA
:10059000499F700D589F700D1124882777FD809515
:1005A000982F0E94DA059B01AC0160E074E284EFB1
:1005B0009BE40E943F056C837D838E839F83DF9144
:1005C000CF9108958F929F92AF92BF92CF92DF9278
:1005D000EF92FF920F931F93CF93DF93CDB7DEB7C8
:1005E0002F97CDBFDEBF8C01FB01C080D180E280A0
:1005F000F380A701960160E074E284EF9BE40E941F
:100600003F054B015C0120E03FEF4FE757E40E94BC
:100610003B0587FF0FC0C501B4010E94A70569878C
:100620007A8781E08F87AE01475F5F4FBE01615FD0
:100630007F4FEFC0A7019601C701B6010E94D70402
:100640009B01AC0160E074E284EF9BE40E943F05F3
:100650004B015C0120E03FEF4FE757E40E943B0570
:1006600087FF0FC0C501B4010E94A7056F8378877B
:1006700082E08E87AE01495F5F4FBE01625F7F4FB0
:10068000C8C020E030E040E850E4C701B6010E9455
:100690008E069B01AC0160E074E284EF9BE40E9453
:1006A0003F054B015C0120E03FEF4FE757E40E941C
:1006B0003B0587FF0FC0C501B4010E94A7056D83EC
:1006C0007E8383E08D87AE014B5F5F4FBE01635F2A
:1006D0007F4F9FC020E030E040E051E4C701B60109
:1006E0000E948E069B01AC0160E074E284EF9BE403
:1006F0000E943F054B015C0120E03FEF4FE757E4CC
:100700000E943B0587FF0FC0C501B4010E94A705E9
:100710006B837C8384E08C87AE014D5F5F4FBE01AD
:10072000645F7F4F76C020E030E040E852E4C701CC
:10073000B6010E948E069B01AC0160E074E284EF7A
:100740009BE40E943F054B015C0120E03FEF4FE737
:1007500057E40E943B0587FF0FC0C501B4010E940A
:10076000A70569837A8385E08B87AE014F5F5F4F72
:10077000BE01655F7F4F4DC020E030E844E853E4A0
:10078000C701B6010E948E069B01AC0160E074E2D5
:1007900084EF9BE40E943F054B015C0120E03FEFAA
:1007A0004FE757E40E943B0587FF08C0C501B4012D
:1007B0000E94A70569837A8386E024C020E030E0A8
:1007C00040E854E4C701B6010E948E069B01AC01CB
:1007D00060E074E284EF9BE40E943F056B017C01C2
:1007E00020E03FEF4FE757E40E948A0618162CF0EE
:1007F000C701B6010E94A70502C06FEF7FE76983BA
:100800007A8387E08B83AE014F5F5F4FBE016D5FE0
:100810007F4FC8010E9493022F96CDBFDEBFDF91AC
:10082000CF911F910F91FF90EF90DF90CF90BF90ED
:10083000AF909F908F9008950F931F93CF93DF9366
:1008400000D000D0CDB7DEB78C01FB012081318113
:100850004281538160E070E080E89FE30E943F05A1
:1008600069837A838B839C83BE016F5F7F4FC8014E
:100870000E94E2022496CDBFDEBFDF91CF911F918F
:100880000F9108950F931F93CF93DF9300D000D063
:10089000CDB7DEB78C01FB012081318142815381CC
:1008A00060E070E08AE794E40E943F0569837A8300
:1008B0008B839C83BE016F5F7F4FC8010E94E20261
:1008C0002496CDBFDEBFDF91CF911F910F91089588
:1008D000CF93DF93CDB7DEB76A97CDBFDEBF8DB7BD
:1008E0009EB7805491098DBF9EBFADB7BEB711961C
:1008F00080E4E0E0F8E001900D928A95E1F7CE0106
:1009000001960E940A0180E090E0AAE7B4E48B8798
:100910009C87AD87BE87CDBFDEBFBE01655F7F4FC1
:10092000CE0101960E94E20201E021E041E061E097
:10093000CE0101960E946D018DEC9CECACE4BFE30E
:100940008B879C87AD87BE878DEC9CECACE0BFE3CA
:100950008F87988BA98BBA8B83E393E3A3EBBEE3DA
:100960008B8B9C8BAD8BBE8B8DEC9CECACECBDE390
:100970008F8B988FA98FBA8F8E01055F1F4F9E01B5
:10098000215F3F4FAE014D5E5F4FBE01695E7F4FFD
:10099000CE0101960E9472029FEF27EA81E69150F4
:1009A00020408040E1F700C00000F6CF5058BB2740
:1009B000AA270ED075C166D130F06BD120F031F48A
:1009C0009F3F11F41EF45BC10EF4E095E7FB51C1AB
:1009D000E92F77D180F3BA17620773078407950769
:1009E00018F071F49EF58FC10EF4E0950B2EBA2F1E
:1009F000A02D0B01B90190010C01CA01A001112425
:100A0000FF27591B99F0593F50F4503E68F11A16D0
:100A1000F040A22F232F342F4427585FF3CF469561
:100A200037952795A795F0405395C9F77EF41F1683
:100A3000BA0B620B730B840BBAF09150A1F0FF0F4D
:100A4000BB1F661F771F881FC2F70EC0BA0F621F39
:100A5000731F841F48F4879577956795B795F79529
:100A60009E3F08F0B3CF9395880F08F09927EE0FBB
:100A7000979587950895D9D008F481E008950CD012
:100A80000FC107D140F0FED030F021F45F3F19F0E4
:100A9000F0C0511139C1F3C014D198F39923C9F3AF
:100AA0005523B1F3951B550BBB27AA276217730774
:100AB000840738F09F5F5F4F220F331F441FAA1F28
:100AC000A9F333D00E2E3AF0E0E830D091505040E8
:100AD000E695001CCAF729D0FE2F27D0660F771F96
:100AE000881FBB1F261737074807AB07B0E809F078
:100AF000BB0B802DBF01FF2793585F4F2AF09E3F0D
:100B0000510568F0B6C000C15F3FECF3983EDCF3DE
:100B1000869577956795B795F7959F5FC9F7880F85
:100B2000911D9695879597F90895E1E0660F771FD7
:100B3000881FBB1F621773078407BA0720F0621B68
:100B4000730B840BBA0BEE1F88F7E095089504D061
:100B50006894B111D9C00895BCD088F09F5790F027
:100B6000B92F9927B751A0F0D1F0660F771F881FD2
:100B7000991F1AF0BA95C9F712C0B13081F0C3D0ED
:100B8000B1E00895C0C0672F782F8827B85F39F08B
:100B9000B93FCCF3869577956795B395D9F73EF431
:100BA00090958095709561957F4F8F4F9F4F0895D9
:100BB000E89409C097FB3EF49095809570956195F7
:100BC0007F4F8F4F9F4F9923A9F0F92F96E9BB27AD
:100BD0009395F695879577956795B795F111F8CF29
:100BE000FAF4BB0F11F460FF1BC06F5F7F4F8F4F94
:100BF0009F4F16C0882311F096E911C0772321F08A
:100C00009EE8872F762F05C0662371F096E8862F21
:100C100070E060E02AF09A95660F771F881FDAF778
:100C2000880F9695879597F90895990F0008550FA5
:100C3000AA0BE0E8FEEF16161706E807F907C0F062
:100C400012161306E407F50798F0621B730B840B6A
:100C5000950B39F40A2661F0232B242B252B21F444
:100C600008950A2609F4A140A6958FEF811D811DE4
:100C7000089597F99F6780E870E060E008959FEF1E
:100C800080EC089500240A94161617061806090623
:100C9000089500240A9412161306140605060895F2
:100CA000092E0394000C11F4882352F0BB0F40F47A
:100CB000BF2B11F460FF04C06F5F7F4F8F4F9F4FBA
:100CC000089557FD9058440F551F59F05F3F71F03C
:100CD0004795880F97FB991F61F09F3F79F08795A3
:100CE0000895121613061406551FF2CF4695F1DF2C
:100CF00008C0161617061806991FF1CF86957105BC
:100D0000610508940895E894BB2766277727CB01EF
:100D100097F908958ADF08F48FEF08950BD0C0CFBC
:100D2000B1DF28F0B6DF18F0952309F0A2CFA7CFE6
:100D30001124EACFC6DFA0F3959FD1F3950F50E0C1
:100D4000551F629FF001729FBB27F00DB11D639F7D
:100D5000AA27F00DB11DAA1F649F6627B00DA11D23
:100D6000661F829F2227B00DA11D621F739FB00DC9
:100D7000A11D621F839FA00D611D221F749F332739
:100D8000A00D611D231F849F600D211D822F762FD2
:100D90006A2F11249F5750408AF0E1F088234AF0CF
:100DA000EE0FFF1FBB1F661F771F881F915050401B
:100DB000A9F79E3F510570F05CCFA6CF5F3FECF3E3
:100DC000983EDCF3869577956795B795F795E79507
:100DD0009F5FC1F7FE2B880F911D9695879597F918
:060DE0000895F894FFCF16
:00000001FF
